:060000000A128A11142906
:10000800F000030EF1000B1846200B191020710E9A
:100018008300F00E700E0900B23081000B11A30AA4
:100028002308323C031D1F28A3012020880A081A30
:10003800880125202A200800A00A20080021850020
:1000480008000A3008020319880108002008002166
:10005800850020080A3C031932200800A001A10AE3
:100068002108002187003920080021080021870085
:100078002108063C031941200800A101210800219C
:100088008700080003138312061F860A081A8801CE
:08009800861F86030B1008000F
:100200008A010A140F3982073F3406345B344F34B5
:1002100066346D347D3407347F346F3477347C3406
:1002200039345E34793471341D2137214B213E211C
:100230005421031383122A201B29031783168801D4
:10024000890103138316850187018801860106173A
:1002500086178113151795171510951015119511FF
:1002600003138312850187018801860108000313A7
:1002700083160F178F160F120F140800031383161F
:100280008112811101158114011403138312B230FC
:1002900081000B110800031383161617961703131A
:1002A000831206080B1008008B178B160B118B1589
:0402B0000B10080027
:04400E00D420FF3F7C
:00000001FF
